{
  "_format": "hh-sol-artifact-1",
  "contractName": "LazyNFT",
  "sourceName": "contracts/LazyNFT.sol",
  "abi": [
    {
      "inputs": [],
      "stateMutability": "nonpayable",
      "type": "constructor"
    },
    {
      "anonymous": false,
      "inputs": [
        {
          "indexed": true,
          "internalType": "address",
          "name": "owner",
          "type": "address"
        },
        {
          "indexed": true,
          "internalType": "address",
          "name": "approved",
          "type": "address"
        },
        {
          "indexed": true,
          "internalType": "uint256",
          "name": "tokenId",
          "type": "uint256"
        }
      ],
      "name": "Approval",
      "type": "event"
    },
    {
      "anonymous": false,
      "inputs": [
        {
          "indexed": true,
          "internalType": "address",
          "name": "owner",
          "type": "address"
        },
        {
          "indexed": true,
          "internalType": "address",
          "name": "operator",
          "type": "address"
        },
        {
          "indexed": false,
          "internalType": "bool",
          "name": "approved",
          "type": "bool"
        }
      ],
      "name": "ApprovalForAll",
      "type": "event"
    },
    {
      "anonymous": false,
      "inputs": [
        {
          "indexed": false,
          "internalType": "uint256",
          "name": "itemId",
          "type": "uint256"
        },
        {
          "indexed": false,
          "internalType": "bool",
          "name": "sold",
          "type": "bool"
        },
        {
          "indexed": false,
          "internalType": "uint256",
          "name": "price",
          "type": "uint256"
        },
        {
          "indexed": true,
          "internalType": "address",
          "name": "seller",
          "type": "address"
        },
        {
          "indexed": true,
          "internalType": "address",
          "name": "buyer",
          "type": "address"
        }
      ],
      "name": "Bought",
      "type": "event"
    },
    {
      "anonymous": false,
      "inputs": [
        {
          "indexed": true,
          "internalType": "address",
          "name": "signer",
          "type": "address"
        },
        {
          "indexed": false,
          "internalType": "address",
          "name": "minter",
          "type": "address"
        },
        {
          "indexed": false,
          "internalType": "uint256",
          "name": "tokenId",
          "type": "uint256"
        },
        {
          "indexed": false,
          "internalType": "uint256",
          "name": "minPrice",
          "type": "uint256"
        },
        {
          "indexed": false,
          "internalType": "string",
          "name": "tokenURI",
          "type": "string"
        },
        {
          "indexed": false,
          "internalType": "string",
          "name": "name",
          "type": "string"
        },
        {
          "indexed": false,
          "internalType": "string",
          "name": "description",
          "type": "string"
        },
        {
          "indexed": false,
          "internalType": "bytes",
          "name": "signature",
          "type": "bytes"
        }
      ],
      "name": "RedeemedAndMinted",
      "type": "event"
    },
    {
      "anonymous": false,
      "inputs": [
        {
          "indexed": true,
          "internalType": "bytes32",
          "name": "role",
          "type": "bytes32"
        },
        {
          "indexed": true,
          "internalType": "bytes32",
          "name": "previousAdminRole",
          "type": "bytes32"
        },
        {
          "indexed": true,
          "internalType": "bytes32",
          "name": "newAdminRole",
          "type": "bytes32"
        }
      ],
      "name": "RoleAdminChanged",
      "type": "event"
    },
    {
      "anonymous": false,
      "inputs": [
        {
          "indexed": true,
          "internalType": "bytes32",
          "name": "role",
          "type": "bytes32"
        },
        {
          "indexed": true,
          "internalType": "address",
          "name": "account",
          "type": "address"
        },
        {
          "indexed": true,
          "internalType": "address",
          "name": "sender",
          "type": "address"
        }
      ],
      "name": "RoleGranted",
      "type": "event"
    },
    {
      "anonymous": false,
      "inputs": [
        {
          "indexed": true,
          "internalType": "bytes32",
          "name": "role",
          "type": "bytes32"
        },
        {
          "indexed": true,
          "internalType": "address",
          "name": "account",
          "type": "address"
        },
        {
          "indexed": true,
          "internalType": "address",
          "name": "sender",
          "type": "address"
        }
      ],
      "name": "RoleRevoked",
      "type": "event"
    },
    {
      "anonymous": false,
      "inputs": [
        {
          "indexed": true,
          "internalType": "address",
          "name": "from",
          "type": "address"
        },
        {
          "indexed": true,
          "internalType": "address",
          "name": "to",
          "type": "address"
        },
        {
          "indexed": true,
          "internalType": "uint256",
          "name": "tokenId",
          "type": "uint256"
        }
      ],
      "name": "Transfer",
      "type": "event"
    },
    {
      "inputs": [],
      "name": "DEFAULT_ADMIN_ROLE",
      "outputs": [
        {
          "internalType": "bytes32",
          "name": "",
          "type": "bytes32"
        }
      ],
      "stateMutability": "view",
      "type": "function"
    },
    {
      "inputs": [],
      "name": "MINTER_ROLE",
      "outputs": [
        {
          "internalType": "bytes32",
          "name": "",
          "type": "bytes32"
        }
      ],
      "stateMutability": "view",
      "type": "function"
    },
    {
      "inputs": [
        {
          "internalType": "uint256",
          "name": "tokenId",
          "type": "uint256"
        },
        {
          "internalType": "uint256",
          "name": "minPrice",
          "type": "uint256"
        },
        {
          "internalType": "string",
          "name": "uri",
          "type": "string"
        },
        {
          "internalType": "string",
          "name": "name",
          "type": "string"
        },
        {
          "internalType": "string",
          "name": "description",
          "type": "string"
        },
        {
          "internalType": "bytes",
          "name": "signature",
          "type": "bytes"
        }
      ],
      "name": "_verify",
      "outputs": [
        {
          "internalType": "address",
          "name": "",
          "type": "address"
        }
      ],
      "stateMutability": "view",
      "type": "function"
    },
    {
      "inputs": [
        {
          "internalType": "address",
          "name": "to",
          "type": "address"
        },
        {
          "internalType": "uint256",
          "name": "tokenId",
          "type": "uint256"
        }
      ],
      "name": "approve",
      "outputs": [],
      "stateMutability": "nonpayable",
      "type": "function"
    },
    {
      "inputs": [
        {
          "internalType": "address",
          "name": "owner",
          "type": "address"
        }
      ],
      "name": "balanceOf",
      "outputs": [
        {
          "internalType": "uint256",
          "name": "",
          "type": "uint256"
        }
      ],
      "stateMutability": "view",
      "type": "function"
    },
    {
      "inputs": [
        {
          "internalType": "uint256",
          "name": "tokenId",
          "type": "uint256"
        }
      ],
      "name": "getApproved",
      "outputs": [
        {
          "internalType": "address",
          "name": "",
          "type": "address"
        }
      ],
      "stateMutability": "view",
      "type": "function"
    },
    {
      "inputs": [],
      "name": "getChainID",
      "outputs": [
        {
          "internalType": "uint256",
          "name": "",
          "type": "uint256"
        }
      ],
      "stateMutability": "view",
      "type": "function"
    },
    {
      "inputs": [],
      "name": "getMinter",
      "outputs": [
        {
          "internalType": "address",
          "name": "",
          "type": "address"
        }
      ],
      "stateMutability": "view",
      "type": "function"
    },
    {
      "inputs": [
        {
          "internalType": "bytes32",
          "name": "role",
          "type": "bytes32"
        }
      ],
      "name": "getRoleAdmin",
      "outputs": [
        {
          "internalType": "bytes32",
          "name": "",
          "type": "bytes32"
        }
      ],
      "stateMutability": "view",
      "type": "function"
    },
    {
      "inputs": [],
      "name": "getTotalMinted",
      "outputs": [
        {
          "internalType": "uint256",
          "name": "",
          "type": "uint256"
        }
      ],
      "stateMutability": "view",
      "type": "function"
    },
    {
      "inputs": [
        {
          "internalType": "bytes32",
          "name": "role",
          "type": "bytes32"
        },
        {
          "internalType": "address",
          "name": "account",
          "type": "address"
        }
      ],
      "name": "grantRole",
      "outputs": [],
      "stateMutability": "nonpayable",
      "type": "function"
    },
    {
      "inputs": [
        {
          "internalType": "bytes32",
          "name": "role",
          "type": "bytes32"
        },
        {
          "internalType": "address",
          "name": "account",
          "type": "address"
        }
      ],
      "name": "hasRole",
      "outputs": [
        {
          "internalType": "bool",
          "name": "",
          "type": "bool"
        }
      ],
      "stateMutability": "view",
      "type": "function"
    },
    {
      "inputs": [
        {
          "internalType": "address",
          "name": "owner",
          "type": "address"
        },
        {
          "internalType": "address",
          "name": "operator",
          "type": "address"
        }
      ],
      "name": "isApprovedForAll",
      "outputs": [
        {
          "internalType": "bool",
          "name": "",
          "type": "bool"
        }
      ],
      "stateMutability": "view",
      "type": "function"
    },
    {
      "inputs": [],
      "name": "name",
      "outputs": [
        {
          "internalType": "string",
          "name": "",
          "type": "string"
        }
      ],
      "stateMutability": "view",
      "type": "function"
    },
    {
      "inputs": [
        {
          "internalType": "uint256",
          "name": "tokenId",
          "type": "uint256"
        }
      ],
      "name": "ownerOf",
      "outputs": [
        {
          "internalType": "address",
          "name": "",
          "type": "address"
        }
      ],
      "stateMutability": "view",
      "type": "function"
    },
    {
      "inputs": [
        {
          "internalType": "uint256",
          "name": "_itemId",
          "type": "uint256"
        },
        {
          "internalType": "uint256",
          "name": "price",
          "type": "uint256"
        },
        {
          "internalType": "address",
          "name": "owner",
          "type": "address"
        }
      ],
      "name": "purchaseItem",
      "outputs": [],
      "stateMutability": "payable",
      "type": "function"
    },
    {
      "inputs": [
        {
          "internalType": "address",
          "name": "redeemer",
          "type": "address"
        },
        {
          "internalType": "uint256",
          "name": "tokenId",
          "type": "uint256"
        },
        {
          "internalType": "uint256",
          "name": "minPrice",
          "type": "uint256"
        },
        {
          "internalType": "string",
          "name": "uri",
          "type": "string"
        },
        {
          "internalType": "string",
          "name": "name",
          "type": "string"
        },
        {
          "internalType": "string",
          "name": "description",
          "type": "string"
        },
        {
          "internalType": "bytes",
          "name": "signature",
          "type": "bytes"
        }
      ],
      "name": "redeem",
      "outputs": [],
      "stateMutability": "payable",
      "type": "function"
    },
    {
      "inputs": [
        {
          "internalType": "bytes32",
          "name": "role",
          "type": "bytes32"
        },
        {
          "internalType": "address",
          "name": "account",
          "type": "address"
        }
      ],
      "name": "renounceRole",
      "outputs": [],
      "stateMutability": "nonpayable",
      "type": "function"
    },
    {
      "inputs": [
        {
          "internalType": "bytes32",
          "name": "role",
          "type": "bytes32"
        },
        {
          "internalType": "address",
          "name": "account",
          "type": "address"
        }
      ],
      "name": "revokeRole",
      "outputs": [],
      "stateMutability": "nonpayable",
      "type": "function"
    },
    {
      "inputs": [
        {
          "internalType": "address",
          "name": "from",
          "type": "address"
        },
        {
          "internalType": "address",
          "name": "to",
          "type": "address"
        },
        {
          "internalType": "uint256",
          "name": "tokenId",
          "type": "uint256"
        }
      ],
      "name": "safeTransferFrom",
      "outputs": [],
      "stateMutability": "nonpayable",
      "type": "function"
    },
    {
      "inputs": [
        {
          "internalType": "address",
          "name": "from",
          "type": "address"
        },
        {
          "internalType": "address",
          "name": "to",
          "type": "address"
        },
        {
          "internalType": "uint256",
          "name": "tokenId",
          "type": "uint256"
        },
        {
          "internalType": "bytes",
          "name": "_data",
          "type": "bytes"
        }
      ],
      "name": "safeTransferFrom",
      "outputs": [],
      "stateMutability": "nonpayable",
      "type": "function"
    },
    {
      "inputs": [
        {
          "internalType": "address",
          "name": "operator",
          "type": "address"
        },
        {
          "internalType": "bool",
          "name": "approved",
          "type": "bool"
        }
      ],
      "name": "setApprovalForAll",
      "outputs": [],
      "stateMutability": "nonpayable",
      "type": "function"
    },
    {
      "inputs": [
        {
          "internalType": "bytes4",
          "name": "interfaceId",
          "type": "bytes4"
        }
      ],
      "name": "supportsInterface",
      "outputs": [
        {
          "internalType": "bool",
          "name": "",
          "type": "bool"
        }
      ],
      "stateMutability": "view",
      "type": "function"
    },
    {
      "inputs": [],
      "name": "symbol",
      "outputs": [
        {
          "internalType": "string",
          "name": "",
          "type": "string"
        }
      ],
      "stateMutability": "view",
      "type": "function"
    },
    {
      "inputs": [
        {
          "internalType": "uint256",
          "name": "tokenId",
          "type": "uint256"
        }
      ],
      "name": "tokenURI",
      "outputs": [
        {
          "internalType": "string",
          "name": "",
          "type": "string"
        }
      ],
      "stateMutability": "view",
      "type": "function"
    },
    {
      "inputs": [],
      "name": "totalminted",
      "outputs": [
        {
          "internalType": "uint256",
          "name": "",
          "type": "uint256"
        }
      ],
      "stateMutability": "view",
      "type": "function"
    },
    {
      "inputs": [
        {
          "internalType": "address",
          "name": "from",
          "type": "address"
        },
        {
          "internalType": "address",
          "name": "to",
          "type": "address"
        },
        {
          "internalType": "uint256",
          "name": "tokenId",
          "type": "uint256"
        }
      ],
      "name": "transferFrom",
      "outputs": [],
      "stateMutability": "nonpayable",
      "type": "function"
    }
  ],
  "bytecode": "0x6101406040523480156200001257600080fd5b506040518060400160405280600f81526020017f4c617a794e46542d566f756368657200000000000000000000000000000000008152506040518060400160405280600181526020017f31000000000000000000000000000000000000000000000000000000000000008152506040518060400160405280600881526020017f4c617a794d494e540000000000000000000000000000000000000000000000008152506040518060400160405280600481526020017f4c415a590000000000000000000000000000000000000000000000000000000081525081600090805190602001906200010392919062000216565b5080600190805190602001906200011c92919062000216565b50505060008280519060200120905060008280519060200120905060007f8b73c3c69bb8fe3d512ecc4cf759cc79239f7b179b0ffacaa9a75d522b39400f90508260e081815250508161010081815250504660a0818152505062000188818484620001da60201b60201c565b608081815250503073ffffffffffffffffffffffffffffffffffffffff1660c08173ffffffffffffffffffffffffffffffffffffffff1660601b81525050806101208181525050505050505062000403565b60008383834630604051602001620001f7959493929190620002f9565b6040516020818303038152906040528051906020012090509392505050565b82805462000224906200039e565b90600052602060002090601f01602090048101928262000248576000855562000294565b82601f106200026357805160ff191683800117855562000294565b8280016001018555821562000294579182015b828111156200029357825182559160200191906001019062000276565b5b509050620002a39190620002a7565b5090565b5b80821115620002c2576000816000905550600101620002a8565b5090565b620002d18162000356565b82525050565b620002e2816200036a565b82525050565b620002f38162000394565b82525050565b600060a082019050620003106000830188620002d7565b6200031f6020830187620002d7565b6200032e6040830186620002d7565b6200033d6060830185620002e8565b6200034c6080830184620002c6565b9695505050505050565b6000620003638262000374565b9050919050565b6000819050919050565b600073ffffffffffffffffffffffffffffffffffffffff82169050919050565b6000819050919050565b60006002820490506001821680620003b757607f821691505b60208210811415620003ce57620003cd620003d4565b5b50919050565b7f4e487b7100000000000000000000000000000000000000000000000000000000600052602260045260246000fd5b60805160a05160c05160601c60e0516101005161012051615052620004566000396000612ec601526000612f0801526000612ee701526000612e1c01526000612e7201526000612e9b01526150526000f3fe60806040526004361061019c5760003560e01c806381aa36f7116100ec578063b8f5d26a1161008a578063d547741f11610064578063d547741f146105f1578063e985e9c51461061a578063ee3a297d14610657578063f3667517146106735761019c565b8063b8f5d26a1461056d578063c87b56dd14610589578063d5391393146105c65761019c565b8063a217fddf116100c6578063a217fddf146104c5578063a22cb465146104f0578063b01b720314610519578063b88d4fde146105445761019c565b806381aa36f71461042057806391d148541461045d57806395d89b411461049a5761019c565b8063248a9ca31161015957806342842e0e1161013357806342842e0e14610352578063564b81ef1461037b5780636352211e146103a657806370a08231146103e35761019c565b8063248a9ca3146102c35780632f2ff15d1461030057806336568abe146103295761019c565b806301ffc9a7146101a157806306fdde03146101de578063081812fc14610209578063095ea7b3146102465780630ca1c5c91461026f57806323b872dd1461029a575b600080fd5b3480156101ad57600080fd5b506101c860048036038101906101c39190613629565b61069e565b6040516101d59190613eba565b60405180910390f35b3480156101ea57600080fd5b506101f36106b0565b6040516102009190613fe9565b60405180910390f35b34801561021557600080fd5b50610230600480360381019061022b919061367b565b610742565b60405161023d9190613dc8565b60405180910390f35b34801561025257600080fd5b5061026d6004803603810190610268919061348a565b6107c7565b005b34801561027b57600080fd5b506102846108df565b604051610291919061436b565b60405180910390f35b3480156102a657600080fd5b506102c160048036038101906102bc9190613384565b6108e9565b005b3480156102cf57600080fd5b506102ea60048036038101906102e591906135c4565b610949565b6040516102f79190613ed5565b60405180910390f35b34801561030c57600080fd5b50610327600480360381019061032291906135ed565b610969565b005b34801561033557600080fd5b50610350600480360381019061034b91906135ed565b61098a565b005b34801561035e57600080fd5b5061037960048036038101906103749190613384565b610a0d565b005b34801561038757600080fd5b50610390610a2d565b60405161039d919061436b565b60405180910390f35b3480156103b257600080fd5b506103cd60048036038101906103c8919061367b565b610a3a565b6040516103da9190613dc8565b60405180910390f35b3480156103ef57600080fd5b5061040a6004803603810190610405919061331f565b610aec565b604051610417919061436b565b60405180910390f35b34801561042c57600080fd5b50610447600480360381019061044291906136f3565b610ba4565b6040516104549190613dc8565b60405180910390f35b34801561046957600080fd5b50610484600480360381019061047f91906135ed565b610bcd565b6040516104919190613eba565b60405180910390f35b3480156104a657600080fd5b506104af610c38565b6040516104bc9190613fe9565b60405180910390f35b3480156104d157600080fd5b506104da610cca565b6040516104e79190613ed5565b60405180910390f35b3480156104fc57600080fd5b506105176004803603810190610512919061344e565b610cd1565b005b34801561052557600080fd5b5061052e610ce7565b60405161053b919061436b565b60405180910390f35b34801561055057600080fd5b5061056b600480360381019061056691906133d3565b610ced565b005b610587600480360381019061058291906136a4565b610d4f565b005b34801561059557600080fd5b506105b060048036038101906105ab919061367b565b610eb9565b6040516105bd9190613fe9565b60405180910390f35b3480156105d257600080fd5b506105db61100b565b6040516105e89190613ed5565b60405180910390f35b3480156105fd57600080fd5b50610618600480360381019061061391906135ed565b61102f565b005b34801561062657600080fd5b50610641600480360381019061063c9190613348565b611050565b60405161064e9190613eba565b60405180910390f35b610671600480360381019061066c91906134c6565b6110e4565b005b34801561067f57600080fd5b506106886114f7565b6040516106959190613dc8565b60405180910390f35b60006106a982611521565b9050919050565b6060600080546106bf9061469e565b80601f01602080910402602001604051908101604052809291908181526020018280546106eb9061469e565b80156107385780601f1061070d57610100808354040283529160200191610738565b820191906000526020600020905b81548152906001019060200180831161071b57829003601f168201915b5050505050905090565b600061074d8261159b565b61078c576040517f08c379a0000000000000000000000000000000000000000000000000000000008152600401610783906142ab565b60405180910390fd5b6004600083815260200190815260200160002060009054906101000a900473ffffffffffffffffffffffffffffffffffffffff169050919050565b60006107d282610a3a565b90508073ffffffffffffffffffffffffffffffffffffffff168373ffffffffffffffffffffffffffffffffffffffff161415610843576040517f08c379a000000000000000000000000000000000000000000000000000000000815260040161083a906142eb565b60405180910390fd5b8073ffffffffffffffffffffffffffffffffffffffff16610862611607565b73ffffffffffffffffffffffffffffffffffffffff16148061089157506108908161088b611607565b611050565b5b6108d0576040517f08c379a00000000000000000000000000000000000000000000000000000000081526004016108c7906141ab565b60405180910390fd5b6108da838361160f565b505050565b6000600854905090565b6108fa6108f4611607565b826116c8565b610939576040517f08c379a00000000000000000000000000000000000000000000000000000000081526004016109309061432b565b60405180910390fd5b6109448383836117a6565b505050565b600060076000838152602001908152602001600020600101549050919050565b61097282610949565b61097b81611a0d565b6109858383611a21565b505050565b610992611607565b73ffffffffffffffffffffffffffffffffffffffff168173ffffffffffffffffffffffffffffffffffffffff16146109ff576040517f08c379a00000000000000000000000000000000000000000000000000000000081526004016109f69061434b565b60405180910390fd5b610a098282611b02565b5050565b610a2883838360405180602001604052806000815250610ced565b505050565b6000804690508091505090565b6000806002600084815260200190815260200160002060009054906101000a900473ffffffffffffffffffffffffffffffffffffffff169050600073ffffffffffffffffffffffffffffffffffffffff168173ffffffffffffffffffffffffffffffffffffffff161415610ae3576040517f08c379a0000000000000000000000000000000000000000000000000000000008152600401610ada906141eb565b60405180910390fd5b80915050919050565b60008073ffffffffffffffffffffffffffffffffffffffff168273ffffffffffffffffffffffffffffffffffffffff161415610b5d576040517f08c379a0000000000000000000000000000000000000000000000000000000008152600401610b54906141cb565b60405180910390fd5b600360008373ffffffffffffffffffffffffffffffffffffffff1673ffffffffffffffffffffffffffffffffffffffff168152602001908152602001600020549050919050565b600080610bb4888887878a611be4565b9050610bc08184611c5f565b9150509695505050505050565b60006007600084815260200190815260200160002060000160008373ffffffffffffffffffffffffffffffffffffffff1673ffffffffffffffffffffffffffffffffffffffff16815260200190815260200160002060009054906101000a900460ff16905092915050565b606060018054610c479061469e565b80601f0160208091040260200160405190810160405280929190818152602001828054610c739061469e565b8015610cc05780601f10610c9557610100808354040283529160200191610cc0565b820191906000526020600020905b815481529060010190602001808311610ca357829003601f168201915b5050505050905090565b6000801b81565b610ce3610cdc611607565b8383611c86565b5050565b60085481565b610cfe610cf8611607565b836116c8565b610d3d576040517f08c379a0000000000000000000000000000000000000000000000000000000008152600401610d349061432b565b60405180910390fd5b610d4984848484611df3565b50505050565b60003411610d92576040517f08c379a0000000000000000000000000000000000000000000000000000000008152600401610d899061408b565b60405180910390fd5b610d9d8133856117a6565b60008173ffffffffffffffffffffffffffffffffffffffff1634604051610dc390613d79565b60006040518083038185875af1925050503d8060008114610e00576040519150601f19603f3d011682016040523d82523d6000602084013e610e05565b606091505b5050905080610e49576040517f08c379a0000000000000000000000000000000000000000000000000000000008152600401610e409061410b565b60405180910390fd5b3373ffffffffffffffffffffffffffffffffffffffff168273ffffffffffffffffffffffffffffffffffffffff167fbd984748b13fbe6267191ef05cc2ac413f7983538f15deef0fee37c95fcde7e186600187604051610eab93929190614386565b60405180910390a350505050565b6060610ec48261159b565b610f03576040517f08c379a0000000000000000000000000000000000000000000000000000000008152600401610efa9061428b565b60405180910390fd5b6000600660008481526020019081526020016000208054610f239061469e565b80601f0160208091040260200160405190810160405280929190818152602001828054610f4f9061469e565b8015610f9c5780601f10610f7157610100808354040283529160200191610f9c565b820191906000526020600020905b815481529060010190602001808311610f7f57829003601f168201915b505050505090506000610fad611e4f565b9050600081511415610fc3578192505050611006565b600082511115610ff8578082604051602001610fe0929190613d1e565b60405160208183030381529060405292505050611006565b61100184611e66565b925050505b919050565b7f9f2df0fed2c77648de5860a4cc508cd0818c85b8b8a1ab4ceeef8d981c8956a681565b61103882610949565b61104181611a0d565b61104b8383611b02565b505050565b6000600560008473ffffffffffffffffffffffffffffffffffffffff1673ffffffffffffffffffffffffffffffffffffffff16815260200190815260200160002060008373ffffffffffffffffffffffffffffffffffffffff1673ffffffffffffffffffffffffffffffffffffffff16815260200190815260200160002060009054906101000a900460ff16905092915050565b60008511611127576040517f08c379a000000000000000000000000000000000000000000000000000000000815260040161111e9061408b565b60405180910390fd5b611135868686868686610ba4565b600960006101000a81548173ffffffffffffffffffffffffffffffffffffffff021916908373ffffffffffffffffffffffffffffffffffffffff1602179055506111a0600960009054906101000a900473ffffffffffffffffffffffffffffffffffffffff16611f0d565b3373ffffffffffffffffffffffffffffffffffffffff16600960009054906101000a900473ffffffffffffffffffffffffffffffffffffffff1673ffffffffffffffffffffffffffffffffffffffff161415611231576040517f08c379a00000000000000000000000000000000000000000000000000000000081526004016112289061402b565b60405180910390fd5b61127d7f9f2df0fed2c77648de5860a4cc508cd0818c85b8b8a1ab4ceeef8d981c8956a6600960009054906101000a900473ffffffffffffffffffffffffffffffffffffffff16610bcd565b6112bc576040517f08c379a00000000000000000000000000000000000000000000000000000000081526004016112b39061430b565b60405180910390fd5b843410156112ff576040517f08c379a00000000000000000000000000000000000000000000000000000000081526004016112f69061424b565b60405180910390fd5b61132b600960009054906101000a900473ffffffffffffffffffffffffffffffffffffffff1687611f9d565b6113358685612177565b611362600960009054906101000a900473ffffffffffffffffffffffffffffffffffffffff1688886117a6565b6001600a600088815260200190815260200160002060006101000a81548160ff021916908315150217905550600960009054906101000a900473ffffffffffffffffffffffffffffffffffffffff1673ffffffffffffffffffffffffffffffffffffffff167fb1dcd06e7f5f9d95db92b070f6ce6bdc2bee3502de4cc659cab6c9888e7d4706888888888888886040516114029796959493929190613e2f565b60405180910390a260016008546114199190614492565b6008819055506000600960009054906101000a900473ffffffffffffffffffffffffffffffffffffffff1673ffffffffffffffffffffffffffffffffffffffff163460405161146790613d79565b60006040518083038185875af1925050503d80600081146114a4576040519150601f19603f3d011682016040523d82523d6000602084013e6114a9565b606091505b50509050806114ed576040517f08c379a00000000000000000000000000000000000000000000000000000000081526004016114e49061410b565b60405180910390fd5b5050505050505050565b6000600960009054906101000a900473ffffffffffffffffffffffffffffffffffffffff16905090565b60007f7965db0b000000000000000000000000000000000000000000000000000000007bffffffffffffffffffffffffffffffffffffffffffffffffffffffff1916827bffffffffffffffffffffffffffffffffffffffffffffffffffffffff191614806115945750611593826121eb565b5b9050919050565b60008073ffffffffffffffffffffffffffffffffffffffff166002600084815260200190815260200160002060009054906101000a900473ffffffffffffffffffffffffffffffffffffffff1673ffffffffffffffffffffffffffffffffffffffff1614159050919050565b600033905090565b816004600083815260200190815260200160002060006101000a81548173ffffffffffffffffffffffffffffffffffffffff021916908373ffffffffffffffffffffffffffffffffffffffff160217905550808273ffffffffffffffffffffffffffffffffffffffff1661168283610a3a565b73ffffffffffffffffffffffffffffffffffffffff167f8c5be1e5ebec7d5bd14f71427d1e84f3dd0314c0f7b2291e5b200ac8c7c3b92560405160405180910390a45050565b60006116d38261159b565b611712576040517f08c379a00000000000000000000000000000000000000000000000000000000081526004016117099061418b565b60405180910390fd5b600061171d83610a3a565b90508073ffffffffffffffffffffffffffffffffffffffff168473ffffffffffffffffffffffffffffffffffffffff16148061175f575061175e8185611050565b5b8061179d57508373ffffffffffffffffffffffffffffffffffffffff1661178584610742565b73ffffffffffffffffffffffffffffffffffffffff16145b91505092915050565b8273ffffffffffffffffffffffffffffffffffffffff166117c682610a3a565b73ffffffffffffffffffffffffffffffffffffffff161461181c576040517f08c379a0000000000000000000000000000000000000000000000000000000008152600401611813906140cb565b60405180910390fd5b600073ffffffffffffffffffffffffffffffffffffffff168273ffffffffffffffffffffffffffffffffffffffff16141561188c576040517f08c379a00000000000000000000000000000000000000000000000000000000081526004016118839061412b565b60405180910390fd5b6118978383836122cd565b6118a260008261160f565b6001600360008573ffffffffffffffffffffffffffffffffffffffff1673ffffffffffffffffffffffffffffffffffffffff16815260200190815260200160002060008282546118f29190614573565b925050819055506001600360008473ffffffffffffffffffffffffffffffffffffffff1673ffffffffffffffffffffffffffffffffffffffff16815260200190815260200160002060008282546119499190614492565b92505081905550816002600083815260200190815260200160002060006101000a81548173ffffffffffffffffffffffffffffffffffffffff021916908373ffffffffffffffffffffffffffffffffffffffff160217905550808273ffffffffffffffffffffffffffffffffffffffff168473ffffffffffffffffffffffffffffffffffffffff167fddf252ad1be2c89b69c2b068fc378daa952ba7f163c4a11628f55a4df523b3ef60405160405180910390a4611a088383836122d2565b505050565b611a1e81611a19611607565b6122d7565b50565b611a2b8282610bcd565b611afe5760016007600084815260200190815260200160002060000160008373ffffffffffffffffffffffffffffffffffffffff1673ffffffffffffffffffffffffffffffffffffffff16815260200190815260200160002060006101000a81548160ff021916908315150217905550611aa3611607565b73ffffffffffffffffffffffffffffffffffffffff168173ffffffffffffffffffffffffffffffffffffffff16837f2f8788117e7eff1d82e926ec794901d17c78024a50270940304540a733656f0d60405160405180910390a45b5050565b611b0c8282610bcd565b15611be05760006007600084815260200190815260200160002060000160008373ffffffffffffffffffffffffffffffffffffffff1673ffffffffffffffffffffffffffffffffffffffff16815260200190815260200160002060006101000a81548160ff021916908315150217905550611b85611607565b73ffffffffffffffffffffffffffffffffffffffff168173ffffffffffffffffffffffffffffffffffffffff16837ff6391f5c32d9c69d2a47ea670b442974b53935d1edc7fd64eb21e047a839171b60405160405180910390a45b5050565b6000611c547f73038fee0ca4848c55d9b92ef8f1c549ca8285776d730c7f3ed8d831227629748787878051906020012087805190602001208780519060200120604051602001611c3996959493929190613f43565b60405160208183030381529060405280519060200120612374565b905095945050505050565b6000806000611c6e858561238e565b91509150611c7b81612411565b819250505092915050565b8173ffffffffffffffffffffffffffffffffffffffff168373ffffffffffffffffffffffffffffffffffffffff161415611cf5576040517f08c379a0000000000000000000000000000000000000000000000000000000008152600401611cec9061414b565b60405180910390fd5b80600560008573ffffffffffffffffffffffffffffffffffffffff1673ffffffffffffffffffffffffffffffffffffffff16815260200190815260200160002060008473ffffffffffffffffffffffffffffffffffffffff1673ffffffffffffffffffffffffffffffffffffffff16815260200190815260200160002060006101000a81548160ff0219169083151502179055508173ffffffffffffffffffffffffffffffffffffffff168373ffffffffffffffffffffffffffffffffffffffff167f17307eab39ab6107e8899845ad3d59bd9653f200f220920489ca2b5937696c3183604051611de69190613eba565b60405180910390a3505050565b611dfe8484846117a6565b611e0a84848484612762565b611e49576040517f08c379a0000000000000000000000000000000000000000000000000000000008152600401611e40906140ab565b60405180910390fd5b50505050565b606060405180602001604052806000815250905090565b6060611e718261159b565b611eb0576040517f08c379a0000000000000000000000000000000000000000000000000000000008152600401611ea7906142cb565b60405180910390fd5b6000611eba611e4f565b90506000815111611eda5760405180602001604052806000815250611f05565b80611ee4846128f9565b604051602001611ef5929190613d1e565b6040516020818303038152906040525b915050919050565b80600960006101000a81548173ffffffffffffffffffffffffffffffffffffffff021916908373ffffffffffffffffffffffffffffffffffffffff160217905550611f9a7f9f2df0fed2c77648de5860a4cc508cd0818c85b8b8a1ab4ceeef8d981c8956a6600960009054906101000a900473ffffffffffffffffffffffffffffffffffffffff16612aa6565b50565b600073ffffffffffffffffffffffffffffffffffffffff168273ffffffffffffffffffffffffffffffffffffffff16141561200d576040517f08c379a00000000000000000000000000000000000000000000000000000000081526004016120049061426b565b60405180910390fd5b6120168161159b565b15612056576040517f08c379a000000000000000000000000000000000000000000000000000000000815260040161204d906140eb565b60405180910390fd5b612062600083836122cd565b6001600360008473ffffffffffffffffffffffffffffffffffffffff1673ffffffffffffffffffffffffffffffffffffffff16815260200190815260200160002060008282546120b29190614492565b92505081905550816002600083815260200190815260200160002060006101000a81548173ffffffffffffffffffffffffffffffffffffffff021916908373ffffffffffffffffffffffffffffffffffffffff160217905550808273ffffffffffffffffffffffffffffffffffffffff16600073ffffffffffffffffffffffffffffffffffffffff167fddf252ad1be2c89b69c2b068fc378daa952ba7f163c4a11628f55a4df523b3ef60405160405180910390a4612173600083836122d2565b5050565b6121808261159b565b6121bf576040517f08c379a00000000000000000000000000000000000000000000000000000000081526004016121b69061420b565b60405180910390fd5b806006600084815260200190815260200160002090805190602001906121e692919061312e565b505050565b60007f80ac58cd000000000000000000000000000000000000000000000000000000007bffffffffffffffffffffffffffffffffffffffffffffffffffffffff1916827bffffffffffffffffffffffffffffffffffffffffffffffffffffffff191614806122b657507f5b5e139f000000000000000000000000000000000000000000000000000000007bffffffffffffffffffffffffffffffffffffffffffffffffffffffff1916827bffffffffffffffffffffffffffffffffffffffffffffffffffffffff1916145b806122c657506122c582612ab4565b5b9050919050565b505050565b505050565b6122e18282610bcd565b612370576123068173ffffffffffffffffffffffffffffffffffffffff166014612b1e565b6123148360001c6020612b1e565b604051602001612325929190613d8e565b6040516020818303038152906040526040517f08c379a00000000000000000000000000000000000000000000000000000000081526004016123679190613fe9565b60405180910390fd5b5050565b6000612387612381612e18565b83612f32565b9050919050565b6000806041835114156123d05760008060006020860151925060408601519150606086015160001a90506123c487828585612f65565b9450945050505061240a565b6040835114156124015760008060208501519150604085015190506123f6868383613072565b93509350505061240a565b60006002915091505b9250929050565b6000600481111561244b577f4e487b7100000000000000000000000000000000000000000000000000000000600052602160045260246000fd5b816004811115612484577f4e487b7100000000000000000000000000000000000000000000000000000000600052602160045260246000fd5b141561248f5761275f565b600160048111156124c9577f4e487b7100000000000000000000000000000000000000000000000000000000600052602160045260246000fd5b816004811115612502577f4e487b7100000000000000000000000000000000000000000000000000000000600052602160045260246000fd5b1415612543576040517f08c379a000000000000000000000000000000000000000000000000000000000815260040161253a9061400b565b60405180910390fd5b6002600481111561257d577f4e487b7100000000000000000000000000000000000000000000000000000000600052602160045260246000fd5b8160048111156125b6577f4e487b7100000000000000000000000000000000000000000000000000000000600052602160045260246000fd5b14156125f7576040517f08c379a00000000000000000000000000000000000000000000000000000000081526004016125ee9061406b565b60405180910390fd5b60036004811115612631577f4e487b7100000000000000000000000000000000000000000000000000000000600052602160045260246000fd5b81600481111561266a577f4e487b7100000000000000000000000000000000000000000000000000000000600052602160045260246000fd5b14156126ab576040517f08c379a00000000000000000000000000000000000000000000000000000000081526004016126a29061416b565b60405180910390fd5b6004808111156126e4577f4e487b7100000000000000000000000000000000000000000000000000000000600052602160045260246000fd5b81600481111561271d577f4e487b7100000000000000000000000000000000000000000000000000000000600052602160045260246000fd5b141561275e576040517f08c379a00000000000000000000000000000000000000000000000000000000081526004016127559061422b565b60405180910390fd5b5b50565b60006127838473ffffffffffffffffffffffffffffffffffffffff166130d1565b156128ec578373ffffffffffffffffffffffffffffffffffffffff1663150b7a026127ac611607565b8786866040518563ffffffff1660e01b81526004016127ce9493929190613de3565b602060405180830381600087803b1580156127e857600080fd5b505af192505050801561281957506040513d601f19601f820116820180604052508101906128169190613652565b60015b61289c573d8060008114612849576040519150601f19603f3d011682016040523d82523d6000602084013e61284e565b606091505b50600081511415612894576040517f08c379a000000000000000000000000000000000000000000000000000000000815260040161288b906140ab565b60405180910390fd5b805181602001fd5b63150b7a0260e01b7bffffffffffffffffffffffffffffffffffffffffffffffffffffffff1916817bffffffffffffffffffffffffffffffffffffffffffffffffffffffff1916149150506128f1565b600190505b949350505050565b60606000821415612941576040518060400160405280600181526020017f30000000000000000000000000000000000000000000000000000000000000008152509050612aa1565b600082905060005b6000821461297357808061295c90614701565b915050600a8261296c91906144e8565b9150612949565b60008167ffffffffffffffff8111156129b5577f4e487b7100000000000000000000000000000000000000000000000000000000600052604160045260246000fd5b6040519080825280601f01601f1916602001820160405280156129e75781602001600182028036833780820191505090505b5090505b60008514612a9a57600182612a009190614573565b9150600a85612a0f9190614754565b6030612a1b9190614492565b60f81b818381518110612a57577f4e487b7100000000000000000000000000000000000000000000000000000000600052603260045260246000fd5b60200101907effffffffffffffffffffffffffffffffffffffffffffffffffffffffffffff1916908160001a905350600a85612a9391906144e8565b94506129eb565b8093505050505b919050565b612ab08282611a21565b5050565b60007f01ffc9a7000000000000000000000000000000000000000000000000000000007bffffffffffffffffffffffffffffffffffffffffffffffffffffffff1916827bffffffffffffffffffffffffffffffffffffffffffffffffffffffff1916149050919050565b606060006002836002612b319190614519565b612b3b9190614492565b67ffffffffffffffff811115612b7a577f4e487b7100000000000000000000000000000000000000000000000000000000600052604160045260246000fd5b6040519080825280601f01601f191660200182016040528015612bac5781602001600182028036833780820191505090505b5090507f300000000000000000000000000000000000000000000000000000000000000081600081518110612c0a577f4e487b7100000000000000000000000000000000000000000000000000000000600052603260045260246000fd5b60200101907effffffffffffffffffffffffffffffffffffffffffffffffffffffffffffff1916908160001a9053507f780000000000000000000000000000000000000000000000000000000000000081600181518110612c94577f4e487b7100000000000000000000000000000000000000000000000000000000600052603260045260246000fd5b60200101907effffffffffffffffffffffffffffffffffffffffffffffffffffffffffffff1916908160001a90535060006001846002612cd49190614519565b612cde9190614492565b90505b6001811115612dca577f3031323334353637383961626364656600000000000000000000000000000000600f861660108110612d46577f4e487b7100000000000000000000000000000000000000000000000000000000600052603260045260246000fd5b1a60f81b828281518110612d83577f4e487b7100000000000000000000000000000000000000000000000000000000600052603260045260246000fd5b60200101907effffffffffffffffffffffffffffffffffffffffffffffffffffffffffffff1916908160001a905350600485901c945080612dc390614674565b9050612ce1565b5060008414612e0e576040517f08c379a0000000000000000000000000000000000000000000000000000000008152600401612e059061404b565b60405180910390fd5b8091505092915050565b60007f000000000000000000000000000000000000000000000000000000000000000073ffffffffffffffffffffffffffffffffffffffff163073ffffffffffffffffffffffffffffffffffffffff16148015612e9457507f000000000000000000000000000000000000000000000000000000000000000046145b15612ec1577f00000000000000000000000000000000000000000000000000000000000000009050612f2f565b612f2c7f00000000000000000000000000000000000000000000000000000000000000007f00000000000000000000000000000000000000000000000000000000000000007f00000000000000000000000000000000000000000000000000000000000000006130f4565b90505b90565b60008282604051602001612f47929190613d42565b60405160208183030381529060405280519060200120905092915050565b6000807f7fffffffffffffffffffffffffffffff5d576e7357a4501ddfe92f46681b20a08360001c1115612fa0576000600391509150613069565b601b8560ff1614158015612fb85750601c8560ff1614155b15612fca576000600491509150613069565b600060018787878760405160008152602001604052604051612fef9493929190613fa4565b6020604051602081039080840390855afa158015613011573d6000803e3d6000fd5b505050602060405103519050600073ffffffffffffffffffffffffffffffffffffffff168173ffffffffffffffffffffffffffffffffffffffff16141561306057600060019250925050613069565b80600092509250505b94509492505050565b60008060007f7fffffffffffffffffffffffffffffffffffffffffffffffffffffffffffffff60001b841690506000601b60ff8660001c901c6130b59190614492565b90506130c387828885612f65565b935093505050935093915050565b6000808273ffffffffffffffffffffffffffffffffffffffff163b119050919050565b6000838383463060405160200161310f959493929190613ef0565b6040516020818303038152906040528051906020012090509392505050565b82805461313a9061469e565b90600052602060002090601f01602090048101928261315c57600085556131a3565b82601f1061317557805160ff19168380011785556131a3565b828001600101855582156131a3579182015b828111156131a2578251825591602001919060010190613187565b5b5090506131b091906131b4565b5090565b5b808211156131cd5760008160009055506001016131b5565b5090565b60006131e46131df846143e2565b6143bd565b9050828152602081018484840111156131fc57600080fd5b613207848285614632565b509392505050565b600061322261321d84614413565b6143bd565b90508281526020810184848401111561323a57600080fd5b613245848285614632565b509392505050565b60008135905061325c81614fa9565b92915050565b60008135905061327181614fc0565b92915050565b60008135905061328681614fd7565b92915050565b60008135905061329b81614fee565b92915050565b6000815190506132b081614fee565b92915050565b600082601f8301126132c757600080fd5b81356132d78482602086016131d1565b91505092915050565b600082601f8301126132f157600080fd5b813561330184826020860161320f565b91505092915050565b60008135905061331981615005565b92915050565b60006020828403121561333157600080fd5b600061333f8482850161324d565b91505092915050565b6000806040838503121561335b57600080fd5b60006133698582860161324d565b925050602061337a8582860161324d565b9150509250929050565b60008060006060848603121561339957600080fd5b60006133a78682870161324d565b93505060206133b88682870161324d565b92505060406133c98682870161330a565b9150509250925092565b600080600080608085870312156133e957600080fd5b60006133f78782880161324d565b94505060206134088782880161324d565b93505060406134198782880161330a565b925050606085013567ffffffffffffffff81111561343657600080fd5b613442878288016132b6565b91505092959194509250565b6000806040838503121561346157600080fd5b600061346f8582860161324d565b925050602061348085828601613262565b9150509250929050565b6000806040838503121561349d57600080fd5b60006134ab8582860161324d565b92505060206134bc8582860161330a565b9150509250929050565b600080600080600080600060e0888a0312156134e157600080fd5b60006134ef8a828b0161324d565b97505060206135008a828b0161330a565b96505060406135118a828b0161330a565b955050606088013567ffffffffffffffff81111561352e57600080fd5b61353a8a828b016132e0565b945050608088013567ffffffffffffffff81111561355757600080fd5b6135638a828b016132e0565b93505060a088013567ffffffffffffffff81111561358057600080fd5b61358c8a828b016132e0565b92505060c088013567ffffffffffffffff8111156135a957600080fd5b6135b58a828b016132b6565b91505092959891949750929550565b6000602082840312156135d657600080fd5b60006135e484828501613277565b91505092915050565b6000806040838503121561360057600080fd5b600061360e85828601613277565b925050602061361f8582860161324d565b9150509250929050565b60006020828403121561363b57600080fd5b60006136498482850161328c565b91505092915050565b60006020828403121561366457600080fd5b6000613672848285016132a1565b91505092915050565b60006020828403121561368d57600080fd5b600061369b8482850161330a565b91505092915050565b6000806000606084860312156136b957600080fd5b60006136c78682870161330a565b93505060206136d88682870161330a565b92505060406136e98682870161324d565b9150509250925092565b60008060008060008060c0878903121561370c57600080fd5b600061371a89828a0161330a565b965050602061372b89828a0161330a565b955050604087013567ffffffffffffffff81111561374857600080fd5b61375489828a016132e0565b945050606087013567ffffffffffffffff81111561377157600080fd5b61377d89828a016132e0565b935050608087013567ffffffffffffffff81111561379a57600080fd5b6137a689828a016132e0565b92505060a087013567ffffffffffffffff8111156137c357600080fd5b6137cf89828a016132b6565b9150509295509295509295565b6137e5816145a7565b82525050565b6137f4816145b9565b82525050565b613803816145c5565b82525050565b61381a613815826145c5565b61474a565b82525050565b600061382b82614444565b613835818561445a565b9350613845818560208601614641565b61384e81614841565b840191505092915050565b60006138648261444f565b61386e8185614476565b935061387e818560208601614641565b61388781614841565b840191505092915050565b600061389d8261444f565b6138a78185614487565b93506138b7818560208601614641565b80840191505092915050565b60006138d0601883614476565b91506138db82614852565b602082019050919050565b60006138f3601983614476565b91506138fe8261487b565b602082019050919050565b6000613916602083614476565b9150613921826148a4565b602082019050919050565b6000613939601f83614476565b9150613944826148cd565b602082019050919050565b600061395c601f83614476565b9150613967826148f6565b602082019050919050565b600061397f603283614476565b915061398a8261491f565b604082019050919050565b60006139a2602583614476565b91506139ad8261496e565b604082019050919050565b60006139c5601c83614476565b91506139d0826149bd565b602082019050919050565b60006139e8600283614487565b91506139f3826149e6565b600282019050919050565b6000613a0b601483614476565b9150613a1682614a0f565b602082019050919050565b6000613a2e602483614476565b9150613a3982614a38565b604082019050919050565b6000613a51601983614476565b9150613a5c82614a87565b602082019050919050565b6000613a74602283614476565b9150613a7f82614ab0565b604082019050919050565b6000613a97602c83614476565b9150613aa282614aff565b604082019050919050565b6000613aba603883614476565b9150613ac582614b4e565b604082019050919050565b6000613add602a83614476565b9150613ae882614b9d565b604082019050919050565b6000613b00602983614476565b9150613b0b82614bec565b604082019050919050565b6000613b23602e83614476565b9150613b2e82614c3b565b604082019050919050565b6000613b46602283614476565b9150613b5182614c8a565b604082019050919050565b6000613b69601c83614476565b9150613b7482614cd9565b602082019050919050565b6000613b8c602083614476565b9150613b9782614d02565b602082019050919050565b6000613baf603183614476565b9150613bba82614d2b565b604082019050919050565b6000613bd2602c83614476565b9150613bdd82614d7a565b604082019050919050565b6000613bf5602f83614476565b9150613c0082614dc9565b604082019050919050565b6000613c18602183614476565b9150613c2382614e18565b604082019050919050565b6000613c3b602183614476565b9150613c4682614e67565b604082019050919050565b6000613c5e60008361446b565b9150613c6982614eb6565b600082019050919050565b6000613c81603183614476565b9150613c8c82614eb9565b604082019050919050565b6000613ca4601783614487565b9150613caf82614f08565b601782019050919050565b6000613cc7601183614487565b9150613cd282614f31565b601182019050919050565b6000613cea602f83614476565b9150613cf582614f5a565b604082019050919050565b613d098161461b565b82525050565b613d1881614625565b82525050565b6000613d2a8285613892565b9150613d368284613892565b91508190509392505050565b6000613d4d826139db565b9150613d598285613809565b602082019150613d698284613809565b6020820191508190509392505050565b6000613d8482613c51565b9150819050919050565b6000613d9982613c97565b9150613da58285613892565b9150613db082613cba565b9150613dbc8284613892565b91508190509392505050565b6000602082019050613ddd60008301846137dc565b92915050565b6000608082019050613df860008301876137dc565b613e0560208301866137dc565b613e126040830185613d00565b8181036060830152613e248184613820565b905095945050505050565b600060e082019050613e44600083018a6137dc565b613e516020830189613d00565b613e5e6040830188613d00565b8181036060830152613e708187613859565b90508181036080830152613e848186613859565b905081810360a0830152613e988185613859565b905081810360c0830152613eac8184613820565b905098975050505050505050565b6000602082019050613ecf60008301846137eb565b92915050565b6000602082019050613eea60008301846137fa565b92915050565b600060a082019050613f0560008301886137fa565b613f1260208301876137fa565b613f1f60408301866137fa565b613f2c6060830185613d00565b613f3960808301846137dc565b9695505050505050565b600060c082019050613f5860008301896137fa565b613f656020830188613d00565b613f726040830187613d00565b613f7f60608301866137fa565b613f8c60808301856137fa565b613f9960a08301846137fa565b979650505050505050565b6000608082019050613fb960008301876137fa565b613fc66020830186613d0f565b613fd360408301856137fa565b613fe060608301846137fa565b95945050505050565b600060208201905081810360008301526140038184613859565b905092915050565b60006020820190508181036000830152614024816138c3565b9050919050565b60006020820190508181036000830152614044816138e6565b9050919050565b6000602082019050818103600083015261406481613909565b9050919050565b600060208201905081810360008301526140848161392c565b9050919050565b600060208201905081810360008301526140a48161394f565b9050919050565b600060208201905081810360008301526140c481613972565b9050919050565b600060208201905081810360008301526140e481613995565b9050919050565b60006020820190508181036000830152614104816139b8565b9050919050565b60006020820190508181036000830152614124816139fe565b9050919050565b6000602082019050818103600083015261414481613a21565b9050919050565b6000602082019050818103600083015261416481613a44565b9050919050565b6000602082019050818103600083015261418481613a67565b9050919050565b600060208201905081810360008301526141a481613a8a565b9050919050565b600060208201905081810360008301526141c481613aad565b9050919050565b600060208201905081810360008301526141e481613ad0565b9050919050565b6000602082019050818103600083015261420481613af3565b9050919050565b6000602082019050818103600083015261422481613b16565b9050919050565b6000602082019050818103600083015261424481613b39565b9050919050565b6000602082019050818103600083015261426481613b5c565b9050919050565b6000602082019050818103600083015261428481613b7f565b9050919050565b600060208201905081810360008301526142a481613ba2565b9050919050565b600060208201905081810360008301526142c481613bc5565b9050919050565b600060208201905081810360008301526142e481613be8565b9050919050565b6000602082019050818103600083015261430481613c0b565b9050919050565b6000602082019050818103600083015261432481613c2e565b9050919050565b6000602082019050818103600083015261434481613c74565b9050919050565b6000602082019050818103600083015261436481613cdd565b9050919050565b60006020820190506143806000830184613d00565b92915050565b600060608201905061439b6000830186613d00565b6143a860208301856137eb565b6143b56040830184613d00565b949350505050565b60006143c76143d8565b90506143d382826146d0565b919050565b6000604051905090565b600067ffffffffffffffff8211156143fd576143fc614812565b5b61440682614841565b9050602081019050919050565b600067ffffffffffffffff82111561442e5761442d614812565b5b61443782614841565b9050602081019050919050565b600081519050919050565b600081519050919050565b600082825260208201905092915050565b600081905092915050565b600082825260208201905092915050565b600081905092915050565b600061449d8261461b565b91506144a88361461b565b9250827fffffffffffffffffffffffffffffffffffffffffffffffffffffffffffffffff038211156144dd576144dc614785565b5b828201905092915050565b60006144f38261461b565b91506144fe8361461b565b92508261450e5761450d6147b4565b5b828204905092915050565b60006145248261461b565b915061452f8361461b565b9250817fffffffffffffffffffffffffffffffffffffffffffffffffffffffffffffffff048311821515161561456857614567614785565b5b828202905092915050565b600061457e8261461b565b91506145898361461b565b92508282101561459c5761459b614785565b5b828203905092915050565b60006145b2826145fb565b9050919050565b60008115159050919050565b6000819050919050565b60007fffffffff0000000000000000000000000000000000000000000000000000000082169050919050565b600073ffffffffffffffffffffffffffffffffffffffff82169050919050565b6000819050919050565b600060ff82169050919050565b82818337600083830152505050565b60005b8381101561465f578082015181840152602081019050614644565b8381111561466e576000848401525b50505050565b600061467f8261461b565b9150600082141561469357614692614785565b5b600182039050919050565b600060028204905060018216806146b657607f821691505b602082108114156146ca576146c96147e3565b5b50919050565b6146d982614841565b810181811067ffffffffffffffff821117156146f8576146f7614812565b5b80604052505050565b600061470c8261461b565b91507fffffffffffffffffffffffffffffffffffffffffffffffffffffffffffffffff82141561473f5761473e614785565b5b600182019050919050565b6000819050919050565b600061475f8261461b565b915061476a8361461b565b92508261477a576147796147b4565b5b828206905092915050565b7f4e487b7100000000000000000000000000000000000000000000000000000000600052601160045260246000fd5b7f4e487b7100000000000000000000000000000000000000000000000000000000600052601260045260246000fd5b7f4e487b7100000000000000000000000000000000000000000000000000000000600052602260045260246000fd5b7f4e487b7100000000000000000000000000000000000000000000000000000000600052604160045260246000fd5b6000601f19601f8301169050919050565b7f45434453413a20696e76616c6964207369676e61747572650000000000000000600082015250565b7f596f752063616e742062757920796f7572206f776e204e465400000000000000600082015250565b7f537472696e67733a20686578206c656e67746820696e73756666696369656e74600082015250565b7f45434453413a20696e76616c6964207369676e6174757265206c656e67746800600082015250565b7f5072696365206d7573742062652067726561746572207468616e207a65726f00600082015250565b7f4552433732313a207472616e7366657220746f206e6f6e20455243373231526560008201527f63656976657220696d706c656d656e7465720000000000000000000000000000602082015250565b7f4552433732313a207472616e736665722066726f6d20696e636f72726563742060008201527f6f776e6572000000000000000000000000000000000000000000000000000000602082015250565b7f4552433732313a20746f6b656e20616c7265616479206d696e74656400000000600082015250565b7f1901000000000000000000000000000000000000000000000000000000000000600082015250565b7f4661696c656420746f2073656e64204574686572000000000000000000000000600082015250565b7f4552433732313a207472616e7366657220746f20746865207a65726f2061646460008201527f7265737300000000000000000000000000000000000000000000000000000000602082015250565b7f4552433732313a20617070726f766520746f2063616c6c657200000000000000600082015250565b7f45434453413a20696e76616c6964207369676e6174757265202773272076616c60008201527f7565000000000000000000000000000000000000000000000000000000000000602082015250565b7f4552433732313a206f70657261746f7220717565727920666f72206e6f6e657860008201527f697374656e7420746f6b656e0000000000000000000000000000000000000000602082015250565b7f4552433732313a20617070726f76652063616c6c6572206973206e6f74206f7760008201527f6e6572206e6f7220617070726f76656420666f7220616c6c0000000000000000602082015250565b7f4552433732313a2062616c616e636520717565727920666f7220746865207a6560008201527f726f206164647265737300000000000000000000000000000000000000000000602082015250565b7f4552433732313a206f776e657220717565727920666f72206e6f6e657869737460008201527f656e7420746f6b656e0000000000000000000000000000000000000000000000602082015250565b7f45524337323155524953746f726167653a2055524920736574206f66206e6f6e60008201527f6578697374656e7420746f6b656e000000000000000000000000000000000000602082015250565b7f45434453413a20696e76616c6964207369676e6174757265202776272076616c60008201527f7565000000000000000000000000000000000000000000000000000000000000602082015250565b7f496e73756666696369656e742066756e647320746f2072656465656d00000000600082015250565b7f4552433732313a206d696e7420746f20746865207a65726f2061646472657373600082015250565b7f45524337323155524953746f726167653a2055524920717565727920666f722060008201527f6e6f6e6578697374656e7420746f6b656e000000000000000000000000000000602082015250565b7f4552433732313a20617070726f76656420717565727920666f72206e6f6e657860008201527f697374656e7420746f6b656e0000000000000000000000000000000000000000602082015250565b7f4552433732314d657461646174613a2055524920717565727920666f72206e6f60008201527f6e6578697374656e7420746f6b656e0000000000000000000000000000000000602082015250565b7f4552433732313a20617070726f76616c20746f2063757272656e74206f776e6560008201527f7200000000000000000000000000000000000000000000000000000000000000602082015250565b7f5369676e617475726520696e76616c6964206f7220756e617574686f72697a6560008201527f6400000000000000000000000000000000000000000000000000000000000000602082015250565b50565b7f4552433732313a207472616e736665722063616c6c6572206973206e6f74206f60008201527f776e6572206e6f7220617070726f766564000000000000000000000000000000602082015250565b7f416363657373436f6e74726f6c3a206163636f756e7420000000000000000000600082015250565b7f206973206d697373696e6720726f6c6520000000000000000000000000000000600082015250565b7f416363657373436f6e74726f6c3a2063616e206f6e6c792072656e6f756e636560008201527f20726f6c657320666f722073656c660000000000000000000000000000000000602082015250565b614fb2816145a7565b8114614fbd57600080fd5b50565b614fc9816145b9565b8114614fd457600080fd5b50565b614fe0816145c5565b8114614feb57600080fd5b50565b614ff7816145cf565b811461500257600080fd5b50565b61500e8161461b565b811461501957600080fd5b5056fea26469706673582212204acf254c4dc507ba47ad8bba7e6ade4b1372f55b20e9c5f7642f9c159879ca1764736f6c63430008040033",
  "linkReferences": {},
  "deployedLinkReferences": {}
}